:020000040800F2
:10000000C8100020D50200087F3E0008A33C00086D
:100010007D3E0008811F0008DD450008000000004B
:10002000000000000000000000000000694000081F
:10003000A120000800000000813E0008994000084F
:10004000EF020008EF020008EF020008EF020008CC
:10005000EF020008EF020008EF020008EF020008BC
:10006000EF020008EF020008EF020008EF020008AC
:10007000EF020008EF020008EF020008EF0200089C
:10008000EF020008EF020008EF020008EF0200088C
:10009000EF020008EF020008EF020008EF0200087C
:1000A000EF020008EF020008EF020008EF0200086C
:1000B000EF020008EF020008EF020008EF0200085C
:1000C000EF020008EF020008EF020008EF0200084C
:1000D000EF020008C9440008EF020008EF02000820
:1000E000EF020008EF020008EF020008EF0200082C
:1000F000EF020008EF020008EF020008EF0200081C
:10010000EF020008EF020008EF020008EF0200080B
:10011000EF020008EF020008EF020008EF020008FB
:10012000EF020008EF020008851F0008EF02000838
:10013000EF020008EF020008EF020008EF020008DB
:10014000EF020008EF020008EF020008EF020008CB
:10015000EF020008EF020008911F0008EF020008FC
:10016000EF020008EF020008EF020008EF020008AB
:10017000EF020008EF020008EF0200080000000094
:10018000EF020008EF02000800F002F800F092F819
:100190000AA090E8000C82448344AAF10107DA45E2
:1001A00001D100F087F8AFF2090EBAE80F0013F0A2
:1001B000010F18BFFB1A43F001031847584B00000A
:1001C000784B0000103A24BF78C878C1FAD852079B
:1001D00024BF30C830C144BF04680C6070470000C1
:1001E0000023002400250026103A28BF78C1FBD840
:1001F000520728BF30C148BF0B6070476E2900F01E
:10020000AD82702900F0F783662904F0F184652936
:1002100004F0EE84672904F0EB84612904F0EA8499
:1002200003681B0A28BF41F08001692900F05A8247
:10023000642900F05782752900F054826F2900F07C
:100240008583782900F0C383E92900F01F83E4291E
:1002500000F01C83F52900F01983EF2900F0828358
:10026000F82900F0C2830368DB0928BF41F0800150
:10027000632901F00781732901F00C81E32901F062
:100280001781F32901F01C81002070471FB504F08D
:10029000AAFC01F0ADF904000020002104F0B4FA3A
:1002A000401C60600020002104F0C4FAE0601FBD23
:1002B00010B510BD01F077F91146FFF7E7FF04F024
:1002C000BDF901F055FA03B4FFF7F2FF03BC01F0EA
:1002D00095FA00000948804709480047FEE7FEE715
:1002E000FEE7FEE7FEE7FEE7FEE7FEE7FEE7FEE7E6
:1002F00004480549054A064B7047000021410008A3
:1003000089010008C80A0020C8100020C80C00207D
:10031000C80C002053EA020C00F069802DE9F04B74
:100320004FF00006002B1FBFB3FA83F503FA05F464
:1003300024FA05F65E4012BF1643B2FA82F502FABD
:1003400005F4C5F120051EBF22FA05FC44EA0C04A1
:10035000203556EA044C4FEA144418BF641C4FF091
:1003600000084FF00009904271EB030C39D30029CB
:1003700019BFB1FA81F701FA07F6B0FA80F700FA6F
:1003800007F6C7F120071EBF20FA07FC46EA0C0655
:100390002037B6FBF4FCA7EB0507103F07F01F0B57
:1003A000CBF120060CFA0BFB2CFA06F644BFB34641
:1003B0000026202FA4BF5E464FF0000B5BEA060C20
:1003C00008BF4FF0010B19EB0B09ABFB027C48EBAC
:1003D0000608C01B06FB02CC0BFB03CC71EB0C0127
:1003E000C1E70B46024641464846BDE8F08B13B5CF
:1003F0004FF000004FF00001AFF30080BDE81C405B
:10040000704700007CB51D4616460C00009001D0D8
:100410002044401E074B7B442A46694601903046E3
:1004200000F0B5F905461CB10020694600F0C2F99C
:1004300028467CBDA503000070B5064600F0ECF828
:100440000468054630460A22002100F0A3FB2C6018
:1004500070BD10B5431C02E010F8011B71B181079B
:10046000FAD14FF0013202C88C1A8C4314EAC2113F
:10047000F9D0C01A0A0603D0C01E10BDC01A10BDA4
:100480000A0401D0801E10BD0902FCD0401E10BD20
:10049000032A40F2308010F0030C00F0158011F8B0
:1004A000013BBCF1020F624498BF11F801CB00F888
:1004B000013B38BF11F8013BA2F1040298BF00F8DC
:1004C00001CB38BF00F8013B11F0030300F0258099
:1004D000083AC0F0088051F8043B083A51F804CBC0
:1004E000A0E80810F5E7121D5CBF51F8043B40F886
:1004F000043BAFF30080D20724BF11F8013B11F891
:1005000001CB48BF11F8012B24BF00F8013B00F8D4
:1005100001CB48BF00F8012B704710B5203AC0F05E
:100520000B80B1E81850203AA0E81850B1E81850F4
:10053000A0E81850BFF4F5AF5FEA027C24BFB1E831
:100540001850A0E8185044BF18C918C0BDE81040A2
:100550005FEA827C24BF51F8043B40F8043B08BFAB
:100560007047D20728BF31F8023B48BF11F8012B72
:1005700028BF20F8023B48BF00F8012B70474FF01E
:1005800000020429C0F0128010F0030C00F01B8060
:10059000CCF1040CBCF1020F18BF00F8012BA8BF6E
:1005A00020F8022BA1EB0C0100F00DB85FEAC17C32
:1005B00024BF00F8012B00F8012B48BF00F8012BE5
:1005C00070474FF0000200B5134694469646203916
:1005D00022BFA0E80C50A0E80C50B1F12001BFF4FC
:1005E000F7AF090728BFA0E80C5048BF0CC05DF862
:1005F00004EB890028BF40F8042B08BF704748BFB0
:1006000020F8022B11F0804F18BF00F8012B704723
:10061000704770477047000000487047680A002024
:1006200070B5044685690068C10601D5302600E032
:100630002026C00707D070BDD4E90121304690477D
:10064000206A401C20626D1EF6D570BD70B5044650
:1006500085690078C00707D170BDD4E90121202049
:100660009047206A401C20626D1EF6D570BD096857
:100670004A0501D540B27047C905FCD500B27047A4
:1006800009684A0501D5C0B27047C905FCD580B2DA
:10069000704770B50C460546012A05D028788006BB
:1006A00000D5EA69002302E0012305E05B1C9342C8
:1006B00002D2E05C0028F9D1A869E618C01AA86146
:1006C000286A184428622846FFF7AAFF04E0D5E903
:1006D000012114F8010B9047B442F8D32846FFF7E4
:1006E000B5FF70BD2DE9F04106460024106875295C
:1006F000314616A510D0FFF7BAFF002802DA4042B3
:1007000013A507E031688A0701D512A502E0490761
:1007100004D511A5012401E0FFF7B2FF00210A2250
:1007200006F1240709E0B0FBF2FCB0FBF2F302FB98
:100730001C00303078541846491C0028F3D1234659
:100740002A463046BDE8F04100F0ADBA0000000096
:100750002D0000002B00000020000000116802683E
:10076000006A530501D508700AE0D30501D5088059
:1007700006E0130603D5C217C1E9000200E00860D5
:100780000120704701694A1C02610878704700B572
:100790008FB0CDE901310021059105497944CDE9BA
:1007A00003101146684600F031F90FB000BD00009B
:1007B000E5FFFFFF0A6802F8010B0A607047D1E904
:1007C00000239A4202D2531C0B6010707047000045
:1007D0002DE9FF5F15468A460446DFF8AC80F844F1
:1007E0000027D8E900103E46CDE9001010E03AF8A5
:1007F00016106A4602A800F0B6FE411C07D0217808
:10080000890603D5E269391891420DD80744761C50
:100810002078800602D5E069B84205DDAE42E6DB0D
:100820003AF816000028E2D1A069C01BA06120465A
:10083000FFF7F6FED8E90010CDE90010002017E020
:100840003AF818106A4602A800F08DFEB0F1FF3F9A
:1008500081460BD000250DF1080B05E0D4E90121FC
:100860001BF8050090476D1C4D45F7D308F10100BA
:10087000B0428046E4DB206A384420622046FFF71D
:10088000E5FEBDE8FF9F0000364400002DE9F04181
:100890008046D21D22F007020025D2E90002F52988
:1008A00015A614D0011E72F1000106DA0023D0EB68
:1008B000030063EB020211A608E0D8F800108B07D2
:1008C00001D50FA602E0490701D50EA60125114664
:1008D000002408F1240704E000F0A0F930323A5572
:1008E000641C50EA0102F7D12B46324621464046AD
:1008F000BDE8F04100F0D7B9000000002D00000075
:100900002B0000002000000030B4002100F124047E
:1009100008E002F00705D208303542EA4372DB08EE
:100920006554491C52EA0305F3D10468002310A260
:10093000250708D504F020040C4304D0C469012322
:100940000CA2641EC46130BC00F0ADB910B5044601
:1009500021461068FFF794FE02462046BDE810408D
:100960000023D1E7D21D22F00701D1E90023CBE714
:100970000000000030000000F0B40D4601880905B9
:1009800002D5214C7C4402E01F4C7C440E340021F3
:1009900000F1240608E002F00F071209E75D42EAC1
:1009A00003721B097754491C52EA0307F3D10278FA
:1009B0000023120704D5702D06D009B1022311348B
:1009C0002246F0BC00F06FB901231034F8E770B58F
:1009D00004460D4621461068FFF752FE024629469E
:1009E0002046BDE870400023C6E7D21D22F0070371
:1009F000D3E90023C0E70368126843F020030360D3
:100A00000823C3610023B7E7984200002DE9F05F97
:100A1000894604464FF0000ADFF874B1FB44C0F881
:100A200020A02046E1688847002874D0252806D0F9
:100A3000D4E901219047206A401C2062F1E700269A
:100A40005F462046E16888472028054607DB312DB0
:100A500005D2781910F8200C08B10643F1E7B00769
:100A600001D526F00406C4F81CA00027C4F818A07D
:100A70002A2D09D0284603F0DAFD38B304EB8708A5
:100A8000303DC8F8185019E059F8041B204604EB13
:100A900087029161E1688847012F054618D1E06916
:100AA000002820DA26F020061DE0D8F8180000EB18
:100AB000800005EB40003038C8F818002046E16897
:100AC0008847054603F0B3FD0028EED1012F0AD078
:100AD0002E2D08D12046E16888477F1C0546022F4D
:100AE00046F02006C4DBA069002803DA404246F045
:100AF0000106A061F00701D026F010066C2D0BD086
:100B0000682D09D04C2D39D06A2D35D0742D35D0B3
:100B10007A2D33D016E038E0E1682F46204688472A
:100B2000B842054609D16C2F26D04FF48060E168A9
:100B3000064320468847054604E06C2F1AD04FF440
:100B4000807006430DB3A5F14100192802D8203565
:100B500046F400664A462946204626604E46FFF780
:100B60004DFB80B101280BD0F61D26F0070000F1E7
:100B7000080956E74020E4E78020D8E70020D6E7C0
:100B800006F104094DE7284652E7206ABDE8F09FC8
:100B9000284200002DE9F04791460F468046044662
:100BA000002614F8015B2DB100F030F80068405DBC
:100BB000C007F6D12B2D02D02D2D18D0641E4A4629
:100BC0003946204600F080FC27B13968A14201D1A6
:100BD000C7F800804FF0020471050BD54042002891
:100BE00003DDFFF719FD0460A007BDE8F08746F4B8
:100BF0008066E4E70028F8DAFFF70EFD04606FF086
:100C00000040F2E700487047680A002010B500F085
:100C1000EFFC001D10BD00BFF13B000030B5B0F18E
:100C20000A024FEA900E71F100034EEA817EB0EBAA
:100C30000E0061EB91014FEA101E4EEA017E10EBAF
:100C40000E0041EB11114FEA102E4EEA016E10EB2F
:100C50000E0041EB11214FEA104E4EEA014E10EB0F
:100C60000E0041EB1141401841F100014FEAD00064
:100C700040EA41704FEAD10110EB80054FEA810450
:100C800044EA907444EB01046D1944EB0404521BD4
:100C9000A3414FF0000348BF0A3200D530BD401CCD
:100CA00041F1000130BD2DE9F0470D4699469246CD
:100CB000044600F124080168880604D5E06921F0A3
:100CC0001001216000E00120A84201DD471B00E087
:100CD0000027A1697A1902EB0900081AA06120789F
:100CE000C00602D42046FFF79BFC002608E0D4E9AA
:100CF00001211AF806009047206A401C761C2062E9
:100D00004E45F4DB2078C0060AD52046FFF788FC64
:100D100006E0D4E9012130209047206A401C20627F
:100D2000381EA7F10107F4DC07E0D4E9012118F827
:100D300005009047206A401C2062281EA5F101058D
:100D4000F3DC2046FFF782FC2078000602D5022063
:100D5000BDE8F0870120FBE770472DE9FF4F0C4607
:100D60001E464FF0FF378BB0D2E90001DDF86080FE
:100D70000A908A46C1F30A5505B93D460021084646
:100D80004FF00000BAF1000F00F4400005DA00EB6C
:100D900080004FF4400101EA50004FEA9059B9F148
:100DA000010F00DDB9460A9850EA4A000ED044F619
:100DB0001050A5F2FF3545432F14B8F1000F1ED097
:100DC0007542291E1EDDC9F100021CE0B8F1010FB9
:100DD0004FF0000001D0302103E0F24305E0215440
:100DE000401CB042FBDB30460022002121540B990D
:100DF000C1F80880C1E900200FB0BDE8F08FBD1B2D
:100E00006D1CDEE74A4600DA694206A800F042FCA3
:100E100006AB93E8070003AB83E8070050460A9946
:100E200000F0F3FC8DE80700A0F500501F3800909B
:100E30000398002D09DD42F21F014A46084403A928
:100E40000390684600F052FF08E0A0F500504A46C3
:100E50001F3803A90390684600F05CFF8DE8070087
:100E60000004000C03D04FF0FF30410800E01046B2
:100E7000B8F1000F03D00022009215461EE0751E47
:100E800005D4FFF7CBFE303262556D1EF9D5B3465F
:100E90000122084302D000227F1C04E02078302881
:100EA00001D100227F1E002A099786D01DE0112D56
:100EB00007DAFFF7B3FE303262556D1C50EA0102CB
:100EC000F5D1084302D00098C8B10EE00021681E99
:100ED00005E0235C625C63542254401E491C81423D
:100EE000F7DBAB46A81B401E0990002004F80B005E
:100EF0000B98099AC0F80880C0E9002B7CE71126FE
:100F00004FF0000859E72DE9F04F88460446D21DFE
:100F100022F0070191B0D1E90001CDE90A0103F007
:100F20005EFB02460B98C00F01D02D2007E0206821
:100F3000810701D52B2002E0202101EAC000032A0D
:100F4000099001D0072A05DB03464146204600F000
:100F500053FB0BE12078800601D5E06900E0062014
:100F6000B8F1650F814606D0B8F1660F18D0B8F118
:100F7000670F70D131E00020B9F1110F009001DB53
:100F8000112301E009F101030AAA01A90CA8FFF746
:100F9000E4FEDDE90C70002609F10105834647E017
:100FA00001204B4600904FF000470AAA01A90CA867
:100FB000FFF7D3FEDDE90DB00C995D46002610B9B0
:100FC00009F101000D18B9EB050003D4C0F1FF369B
:100FD00009F10105A5EB09002BE0B9F1010F01DAD8
:100FE0004FF001090020B9F1110F0090484601DDD2
:100FF000112300E003460AAA01A90CA8FFF7ADFEE1
:10100000DDE90C704D4600268346207800070AD49F
:10101000AB4500DA5D4601A8012D04DD411911F848
:10102000011C302907D04F4502DA17F1040F04DA0A
:10103000012082460FE06D1EEEE7002F02DCED1B63
:101040003E4403E0781CA84200DD7D1CB81B00F183
:10105000010A4FF000472078000703D4AA4501DBBE
:101060004FF0FF3A0021B7F1004F0DF143088DF822
:10107000431024D002202B23002F01DA7F422D239E
:101080000A21021EA0F1010000DC5FB197FBF1FC18
:1010900097FBF1F201FB1C7C17460CF1300C08F8B1
:1010A00001CDEEE7A8F1010003702188090501D503
:1010B000452100E06521A0F1010800F8011C099814
:1010C0000FA9A1EB0807FF1D00B10120411901EB99
:1010D000EA70A1693844081A401EA0612078C00651
:1010E00002D42046FFF79CFA099828B1D4E90121DF
:1010F0009047206A401C20622078C00622D52046F6
:10110000FFF78EFA1EE0002E04DBB34502DD01A8D6
:10111000805D00E03020D4E901219047206A401C26
:101120002062761CAAF101005FEA000A0AD100F0F1
:101130005FFAC0680168405CD4E901219047206AE9
:10114000401C2062281EA5F10105DCDC07E0D4E983
:10115000012118F8010B9047206A401C2062381EBC
:10116000A7F10107F3DC2046FFF770FA032011B066
:1011700043E600002DE9F04F04460D46D21D22F053
:10118000070089B0D0E9009248461746394603F077
:1011900026FA0246F80F01D02D2307E020688107C8
:1011A00001D52B2302E0202101EAC0038DF8203075
:1011B0000BB1012000E00020032A824601D0072A5B
:1011C00004DB2946204600F017FA3DE1207880062E
:1011D00001D40D2500E0E569C7F30A560D2D49DA63
:1011E00000214FEA175B08464FF00000002F00F483
:1011F000400007DA00EB80004FF4400100EBD070B4
:1012000001EA60008115012901DD4FF0FF31002264
:101210004FEA850CBCF1180F06D31346ACF1180049
:101220004FF08052C24003E04FF4801323FA0CF3D6
:101230000CF10C0CBCF1200F04D3ACF1200C09FA1A
:101240000CF001E007FA0CF000294FF0004801DD36
:1012500018B90FE00ED140450CD319EB02095F41DC
:1012600021B9404502D19F4329EA0209BBEB175F30
:1012700000D0761C2088000502D57B48784402E027
:1012800079487844193808AA302302F80A30037CD8
:101290000AF10101002E0AF1020A53546A4602DCE7
:1012A0004FF0300101E04FF031014FF001088DF8AF
:1012B000001002D0A6F2FF3603E059EA470100D041
:1012C0006A4E002D02DC2178090704D54FF0020890
:1012D0002E218DF80110C44600210BE0C7F3034313
:1012E0003F01C35C491C6D1E02F80830052908F156
:1012F000010801DA002DF1DC00210CE000EB19738C
:10130000491C1B786D1E082902F808304FEA09199C
:1013100008F1010801DA002DF0DC2178890602D5F8
:1013200014E0A8F10108E04505DD02EB080111F821
:10133000011C3029F5D0B8F1000F07DD02EB0801E0
:1013400011F8011C2E2901D1A8F10108002D05DD9D
:101350003E2102F808106D1E08F10108407C002EA5
:1013600002F8080008F1010804DA2D20764202F89C
:10137000080002E02B2002F808000A214FF47A70DE
:10138000864208F101080BDB96FBF0F3303302F8DC
:10139000083096FBF0F308F1010800FB136601E04A
:1013A000642E0CDB642096FBF0F3303302F8083037
:1013B00096FBF0F308F1010800FB136601E00A2E2A
:1013C00006DB96FBF1F0303002F8080008F1010866
:1013D00096FBF1F001FB1060303002F80800A169C3
:1013E00008F1010808EB050202EB0A00081AA061E7
:1013F0002078C00602D42046FFF712F9216A08AE11
:1014000001EB0A00206204E0D4E9012116F8010B87
:101410009047BAF1010AF7D22078C00602D52046DB
:10142000FFF7FEF86E4609E016F8010B3E280FD0D4
:10143000D4E901219047206A401C2062B8F10108DC
:10144000F2D22046FFF702F909B00320BDE8F08F81
:10145000206A2844206203E0D4E90121302090472B
:101460006D1EEBD3F8E70000EC39000002FCFFFF33
:1014700010B5436913B1AFF3008001E0FFF709F93C
:10148000012010BD127800F124010A7000224A7078
:101490000122EDE711684FF0FF32E9E710B543692B
:1014A00013B1AFF3008001E0FFF792F9012010BD06
:1014B000128800F1240182840022C2840122EDE717
:1014C00011684FF0FF32E9E72DE9F05F82461546DB
:1014D0008B4600270AF10104B9460078302801D074
:1014E0009DB113E014F8010B0127782803D0582888
:1014F00001D045B10AE00DB1102D07D1002714F835
:10150000010B102502E0082500E00A250026B04660
:101510000EE005FB080005FB06F101271FFA80F825
:1015200001EB1046B6F5803F00D3B94614F8010B25
:10153000294600F0A1F80028EBDABBF1000F05D036
:101540000FB1641E00E05446CBF80040B9F1000F23
:1015500006D0FFF761F802210160C81EBDE8F09FC8
:1015600048EA0640FAE770B516460C460546FFF70E
:101570004DFB036893F80101012806D0FF2C0FD81A
:10158000185D68B101202C7070BDD3F80701324698
:10159000214603F2071303442846BDE8704018476C
:1015A0004FF0FF3070BD7546FFF72CFBAE460500CF
:1015B0006946534620F00700854618B020B5FEF76F
:1015C00097FEBDE820404FF000064FF000074FF0B7
:1015D00000084FF0000B21F00701AC46ACE8C00951
:1015E000ACE8C009ACE8C009ACE8C0098D4670475A
:1015F00000487047880A00202DE9F0411F46044644
:1016000003260168072A01F4006004DB08B116A56F
:1016100005E016A503E008B115A500E015A521F029
:1016200010002060A069C01EA0610FB1401EA06123
:101630002046FEF7F5FF4FB1D4E901213846904727
:10164000206A401C2062C01C206206E0206AFAE783
:10165000D4E9012115F8010B9047761EF8D22046F7
:10166000FEF7F4FFBDE8F0814E414E006E616E0062
:10167000494E4600696E66003A2800D2303820F0A4
:101680002002412A01D3A2F13700884201D34FF052
:10169000FF3070472DE9F047814616468AB033483F
:1016A00078440DC88DE80D0030487844801C03ACA8
:1016B0000DC884E80D0041F69B300844372190FBAB
:1016C000F1F290FBF1F5A5F1800501FB12041B3C42
:1016D00002D56442012000E00020DFF890A080469F
:1016E0000027FA44AAF1BE0A0DE0E00709D032460D
:1016F000684607EB47010AEB810100F00BFB8DE820
:10170000070064107F1C002CEFD1184F7F44AC3FC2
:1017100018E0E80714D007EB04100DF1180A90E860
:101720000E008AE80E00C068F04201D198190890B6
:10173000324606A903A800F0EDFA03AB83E80700E0
:101740006D10641C002DE4D132466946B8F1000FDB
:1017500003A802D000F0CAFA01E000F0DBFAC9E900
:101760000001C9F808200AB0BDE8F087583600002B
:101770000446AFF300802046FEF7A5FD4FF0013C84
:1017800050F8042B51F8043B9A4221D1A2EB0C03F0
:10179000934313EACC1317D150F8042B51F8043BB0
:1017A0009A4215D1A2EB0C03934313EACC130BD14D
:1017B00050F8042B51F8043B9A4209D1A2EB0C03D8
:1017C000934313EACC13DBD04FF00000704700BF07
:1017D000D01A01BAB1FA81F101F0180122FA01F030
:1017E000CB40C1F12001DBB2C0B2C01A2CFA01F328
:1017F000D11A914311EAC311E6D17047014918206B
:10180000ABBEFEE72600020070475FEA400C08BF4F
:1018100091F0000F4FEA8C234FEAC12243EA515165
:101820004FEA1C5018BF00F5F0404FEA300018BFD7
:1018300041F000415FEA6C5C00F02980BCF1FF3FA1
:1018400008BF40F080407047130C06BF12044FF0F1
:10185000100C4FF0000C130E04BF12020CF1080C18
:10186000130F04BF12010CF1040C930F04BF92007C
:101870000CF1020CD30F04BF52000CF1010C114605
:101880004FF00002A0F11F00A0EB0C00704711F018
:10189000004F08BF704731F000413FF4D5AF0B0C4B
:1018A00006BF09044FF0100C4FF0000C0B0E04BFE4
:1018B00009020CF1080C0B0F04BF09010CF1040C18
:1018C0008B0F04BF89000CF1020CCB0F04BF490041
:1018D0000CF1010CCCF12003A0EB0C0022FA03F375
:1018E00002FA0CF241EA030100F10100704720F016
:1018F0007F4C80EA030023F07F47ACEB070303F53E
:101900007C5300F0004003F1FF032DE980494FEACA
:10191000154B09B44FEA144325EA0B4E24EA034859
:101920000FF2042606EB132749083E785FEA3202DD
:1019300003FB0667C7F5000707FB06F64FEA5437B7
:101940004FEAD64606F1020607FB066CCCF1005CB6
:101950004FEA1C472CEA074C07FB06F40CFB06F584
:1019600004EB15464FEA961634BF00204FF00040B6
:101970004FEAD13706FB07FC4FEA1C4C0CFB0BF778
:10198000D21B03FB0CF761EB07010CFB0EF7B0EB6E
:10199000074072EB17420CFB08F734BFA2EB07427B
:1019A000B2EB074261EB17414FEA0C444FEA910753
:1019B00006FB07FC4FEA1C4C0CFB0BF7B0EBC740D7
:1019C00072EB573203FB0CF734BFA2EBC742B2EB0A
:1019D000C74261EB57310CFB0EF7B0EBC70072EB5F
:1019E00057720CFB08F734BFA2EBC702B2EBC70279
:1019F00061EB5771039F4FEA816141EA921104EB59
:101A0000CC044FEAD1374FEA826206FB07FC42EA78
:101A100090124FEA80604FEA1C4C0CFB0BF7D21B74
:101A200003FB0CF761EB07010CFB0EF7B0EB074073
:101A300072EB17420CFB08F734BFA2EB0742B2EB84
:101A4000074261EB17414FEA8C554FEA910704EBCF
:101A50009C2406FB07FC4FEA1C4C0CFB0BF7B0EB7D
:101A6000C74072EB573203FB0CF734BFA2EBC742FF
:101A7000B2EBC74261EB57310CFB0EF7B0EBC7007E
:101A800072EB57720CFB08F734BFA2EBC702B2EB44
:101A9000C70261EB577115EB4C254FEA816141EAB2
:101AA00092114FEA82624FEAD13742EA901206FB66
:101AB00007FC44F100044FEA80604FEA1C4C0CFB29
:101AC0000BF7D21B03FB0CF761EB07010CFB0EF7C6
:101AD000B0EB074072EB17420CFB08F734BFA2EBE8
:101AE0000742B2EB074261EB174115EB1C154FEAB9
:101AF000813141EA92414FEA823242EA90424FEA12
:101B000080304FEA0C7644F1000448EA03434EEA81
:101B10000B484FF0000EB2EB080C71EB030724BF2B
:101B2000624639464EEB0E0E4FF0000B0018524144
:101B300049414BEB0B0BB2EB080C71EB03077BF14C
:101B4000000B24BF624639464EEB0E0E4FF0000BE1
:101B50000018524149414BEB0B0BB2EB080C71EBF7
:101B600003077BF1000B24BF624639464EEB0E0E95
:101B700051EA020718BF46F0010616EB0E7655F142
:101B8000000254F1000103D5BDE88901BDE80088D9
:101B9000BDE88901BDE80048B619524141EB010199
:101BA000A3F10103704780807F7E7D7C7B7A79780A
:101BB000777676757473727171706F6E6E6D6C6C12
:101BC0006B6A6A69686867666665646463636261B4
:101BD0006160605F5F5E5E5D5D5C5C5B5B5A5A5935
:101BE00059585857575656555555545453535252A1
:101BF0005251515050504F4F4F4E4E4D4D4D4C4CF9
:101C00004C4B4B4B4A4A4A49494948484847474741
:101C1000474646464545454444444443434343427E
:101C2000424242414141002B26D4770021D01CB5CD
:101C30004FEA370703B44FF010004FF010014FF098
:101C400000000FBCBDE810400BF1010BBBF1010F10
:101C500008BF5FEA170722BF12F1010211F101016B
:101C60004FF0004143F1000300F0004043EA000060
:101C70007047F9D35708DAE746EA064613F1400FF2
:101C80004FEA16461FDD13F1200FDFBF16430A4649
:101C9000002120335B42C8D0C3F1200746EA064644
:101CA00002FA07F74FEA164646EA0706C3F120078D
:101CB00022FA03F201FA07F721FA03F14FF00003C9
:101CC00042EA0702B1E746EA020646EA06464FEA5A
:101CD000164646EA0106BCBF46EA0646360C4FF0F9
:101CE00000034FF000024FF000019EE72DE9C048CD
:101CF000934630B491E8380007C831EA400C48BF39
:101D000034EA430C03D5FFF7F2FDFFF78CFFF0BC7C
:101D1000BDE800882DE9C048934630B491E838000A
:101D200007C810F0804F08BF13F0804F03D100F0B8
:101D300005F8FFF778FFF0BCBDE8008820F07F478A
:101D400080EA030023F07F4C07EB0C03A3F57C53E0
:101D500000F00040A3F1FE0392F0000F00F0B3800A
:101D600095F0000F00F077802DE901494FEA11400E
:101D70004FEA144621EA004800FB06FC24EA064725
:101D800008FB06F607FB08F800FB07F718EB064808
:101D90004CEB164C4FEA124B18EB07484FEA15462E
:101DA0004CEB174022EA0B4E0BFB06FC25EA0647DC
:101DB0000EFB06F607FB0EFE0BFB07F71EEB064EAF
:101DC0004CEB164C4FF000061EEB074E4CEB174B3E
:101DD00018EB0B0840F1000018EB0E0B58EB000855
:101DE00040F100008F1A4FF000013CBFC943661B51
:101DF00014BFB5EB040C00213CBFC943F61B4FEAEE
:101E000017444EEA8E0E27EA04454FEA1C4704FBAE
:101E100007622CEA074C05FB07F70CFB05F604FBF1
:101E20000CFC16EB074642EB174216EB0C4642EB56
:101E30001C421BEB060658EB0202414146EA9E0695
:101E400001D5BDE80189B619524141EB0101A3F169
:101E50000103BDE801894FEA14454FEA114724EA1E
:101E6000054621EA074C05FB07F406FB07F70CFBC8
:101E700006F105FB0CFC11EB074144EB17444FEA5C
:101E8000124711EB0C4144EB1C4422EA074C05FBC2
:101E900007F206FB07F70CFB06F605FB0CFC16EB3E
:101EA000074642EB174216EB0C4642EB1C456A18FC
:101EB00054F1000148BF7047B619524141EB01018E
:101EC000A3F10103704795F0000F37D04FEA11429C
:101ED0004FEA144721EA024624EA074C02FB07F1C5
:101EE00006FB07F70CFB06F402FB0CFC14EB0744A3
:101EF00041EB17414FEA154714EB0C4441EB1C41F1
:101F000025EA074C02FB07F506FB07F70CFB06F674
:101F100002FB0CFC16EB074645EB174516EB0C468F
:101F200045EB1C42121951F1000148BF7047B61928
:101F3000524141EB0101A3F1010370474FEA1445FF
:101F40004FEA114724EA054621EA074C05FB07F151
:101F500006FB07F70CFB06F24FF0000605FB0CFC36
:101F600012EB074241EB174112EB0C4251EB1C41C3
:101F700048BF7047921841EB0101A3F1010370477C
:101F8000FEE70000014800F0B1BB0000D8000020CF
:101F9000014800F0ABBB00003801002001681823A5
:101FA000CAB2103AB2FBF3F2054B6FF30901032AF0
:101FB0009B5CC36500D9091D816508467047000018
:101FC000F84B000810B5014600208B698A6A4FF073
:101FD000C07453B1B3F5005F15D072B1012A0CD0B3
:101FE000022A0AD0032A09D104E01AB1012A06D034
:101FF000022A03D1C96AC90100D5012010BDC96AEE
:10200000A142FAD010BD002AF7D0012AF2D0022A4C
:10201000F3D0032AF3D010BD30B50468256825F449
:1020200080252560046863608368402B036803D0C3
:1020300099600068C26030BD9A600068C16030BDC0
:1020400010B501222021144802F0BCFB134C0222DF
:102050002021A060104802F0B5FBE060032220219F
:102060000D4802F0AFFB206104F118030422202187
:10207000094802F03BFB04F1200305222021064819
:1020800002F034FB04F128030622BDE810402021B1
:10209000014802F02BBB0000980100200000002046
:1020A000704770470F2900D900210F2A00D900225C
:1020B000000400EB013000EB022070473EB50446FF
:1020C00000F0A2FA00F060FA02AB01AA69462046CD
:1020D00000F0CEF80F4D4FF48044002221462846F0
:1020E00000F064FDD82001F06BFF9DF8000001F0C6
:1020F00067FF9DF8040001F063FF9DF8080001F000
:102100005FFF01222146284600F050FD00F03CFA16
:102110003EBD000000040240FEB516460F4602AB6D
:1021200001AA694600F0A4F8104D4FF48044002243
:102130002146284600F03AFD032001F041FF9DF8BA
:10214000000001F03DFF9DF8040001F039FF9DF80B
:10215000080001F035FF3146384601F011FF012239
:102160002146284600F022FDFEBD0000000402408A
:1021700070B5104E4FF4804500222946304600F0DD
:1021800015FD902001F01CFF002001F019FF002038
:1021900001F016FF002001F013FF01F0F9FE040228
:1021A00001F0F6FE044301222946304600F0FEFC11
:1021B000204670BD000402403EB502AB01AA69464C
:1021C00000F056F8114D4FF4804400222146284675
:1021D00000F0ECFC032001F0F3FE9DF8000001F09C
:1021E000EFFE9DF8040001F0EBFE9DF8080001F001
:1021F000E7FE01F0CDFE8DF80000012221462846C1
:1022000000F0D4FC9DF800003EBD00000004024038
:1022100070B50A4E4FF4804500222946304600F042
:10222000C5FC052001F0CCFE01F0B2FE04460122FF
:102230002946304600F0BAFC204670BD000402403A
:1022400070B50A4E4FF4804500222946304600F012
:10225000ADFC352001F0B4FE01F09AFE04460122E7
:102260002946304600F0A2FC204670BD0004024022
:1022700010B5040C0C70010A1170187010BD00002C
:1022800030B500258DB02A4629462846FFF70AFFBB
:10229000044632226946FFF73FFF1FA002F038F9DB
:1022A000694622A002F034F93222694604F1640042
:1022B000FFF732FF1EA002F02BF969461BA002F0C7
:1022C00027F9012200212846FFF7ECFE04460C30D6
:1022D000FFF772FF05461BA002F01AF929461CA061
:1022E00002F016F904F18800FFF766FF054619A011
:1022F00002F00EF9294616A002F00AF904F1D20004
:10230000FFF75AFF044617A002F002F9214610A079
:1023100002F0FEF80DB030BD526561642066726F48
:102320006D2050616765303A300000002573000071
:10233000526561642066726F6D2050616765303A46
:102340003130300050616765315B31325D203D00D6
:102350002564000050616765315B3133365D203D97
:102360000000000050616765315B3231305D203D17
:102370000000000010B5FFF7FBFE044601461DA05B
:1023800002F0C6F81FA002F0C3F84AF21712A11A11
:1023900094422CD00ADC11F5054022D0B0F5806FB4
:1023A00023D0A0F58060013806D11CE0B1F51C5F98
:1023B00006D0B1F59C4F01D016A002E019A000E0B4
:1023C0001AA002F0A5F8FFF723FF01461AA002F0B9
:1023D0009FF8FFF735FF0146BDE810401AA002F054
:1023E00097B81DA0EDE71FA0EBE720A0E9E722A02A
:1023F000E7E700005468652049442069732025649C
:102400000000000054686520636869702069733AB1
:1024100020000000556E6B6E6F776E2074797065CA
:102420000000000057323551313238004744323510
:1024300051313238000000005374617475732052BA
:102440006567313D256420005374617475732052B3
:102450006567323D25642000454E323551313238B2
:10246000000000004E32355131323800584D3235BF
:102470005148313238000000464D32355131323842
:102480000000000070B50025CEB02C462A46294633
:102490002846FFF707FE0646182220A145A8FEF7AA
:1024A0003CF845A8FDF7D5FF401C82B245A930464F
:1024B00000F078F81FA002F02BF845A922A002F046
:1024C00027F822A30DF5827C0FCB8CE80F0041A8E2
:1024D000FDF7BFFF401C82B241A906F1640000F085
:1024E00061F81EA002F014F841A917A001F0FCFF4A
:1024F000002268468254521C92B2FF2AFAD9012265
:1025000021462846FFF7CEFD4FF48072694600F061
:1025100049F817A001F0E8FF4EB070BD48656C6C3B
:102520006F2066726F6D20626567696E6E696E6797
:1025300000000000577269746520696E2050616761
:1025400065303A30000000002573000048656C6C6F
:102550006F20696E207061676500000057726974B2
:102560006520696E2050616765303A313030000077
:10257000577269746520302D32353520696E2050D0
:10258000616765310000000010B5002403E0012000
:1025900000F01EFA641CFFF73BFEC007F7D120468F
:1025A00010BD0000FEB516460F4602AB01AA6946F3
:1025B000FFF75EFE00F028F8FFF7E6FF114D4FF43D
:1025C000804400222146284600F0F0FA022001F063
:1025D000F7FC9DF8000001F0F3FC9DF8040001F009
:1025E000EFFC9DF8080001F0EBFC3146384601F0A5
:1025F000DFFC01222146284600F0D8FAFFF7C4FF8D
:10260000FEBD00000004024070B50A4E4FF4804544
:1026100000222946304600F0C9FA062001F0D0FC1D
:10262000044601222946304600F0C0FAFFF7ACFF0D
:10263000204670BD000402402DE9F0410446876D3C
:1026400000F0BAFA064694F835000025022806D0B4
:102650008020606584F834500120BDE8F081206856
:10266000016821F0160101602068416921F08001B4
:102670004161206C08B9A06C20B12068016821F08C
:10268000080101602068016821F0010101600BE090
:1026900000F092FA801B052806D92020606504F816
:1026A000345F03206070D8E720680068C007EFD16E
:1026B00094F85C103F208840B86004F8345F012033
:1026C00060700020C9E790F83510022903D08021FE
:1026D000416501207047052180F8351000680168C8
:1026E00021F0010101600020704700002DE9F8434E
:1026F00004464FF00009CDF8009063484FF416519E
:10270000A56D0068B0FBF1F72E6894F85C10082006
:1027100000FA01F131420FD021680A6852070BD547
:102720000A6822F004020A6094F85C108840A860ED
:10273000606D40F00100606594F85C104FF0010896
:1027400008FA01F0304208D021684969090604D529
:10275000A860606D40F00200606594F85C10042091
:102760008840304208D021680968890704D5A860EC
:10277000606D40F00400606594F85C1010208840A3
:10278000304218D021680968090714D5A86020686C
:102790000168490304D50068000308D5A16C07E06F
:1027A0000168C90503D4016821F008010160216CAA
:1027B00009B12046884794F85C10202088403042B8
:1027C00031D021680968C9062DD5A86094F8350074
:1027D00005282068016806D0490347D50068000332
:1027E0001DD4616C1CE021F0160101602068416974
:1027F00021F080014161206C08B9A06C20B12068F3
:10280000016821F00801016094F85C103F208840C5
:10281000A86084F8349084F83580216D1FE0E16B66
:1028200009B120468847606D00282BD0606DC00735
:1028300014D0052084F835002068016821F00101DA
:1028400001600098401C0090B84203D820680068DE
:10285000C007F6D184F8349084F83580E16C002903
:1028600010D001B02046BDE8F04308470168C90513
:10287000D5D4016821F01001016084F8349084F807
:102880003580CCE7BDE8F8833C0000202DE9F0411D
:10289000044600F091F906465CB1002584F83450F6
:1028A000022084F835002068016821F001010160F0
:1028B0000DE00120BDE8F08100F07EF9801B0528C5
:1028C00005D920206065032084F83500F2E72068F0
:1028D0000068C007F0D12268116820480140D4E99F
:1028E00001031843D4E9033633431843636918439B
:1028F000A3691843E3691843236A18430843616ACC
:10290000042903D1D4E90B1319430843106020684C
:102910004069666A20F0070130460E43012704280B
:102920000CD1A06A0643E06A40B12046FFF74AFB9B
:1029300020B14020606584F83570BAE720684661B0
:102940002046FFF72BFB94F85C203F2191408160EB
:10295000656584F835700020ACE700003F8010F01A
:102960002DE9F0410446866D90F8340000250128D9
:102970000DD0012084F8340094F835700020012F28
:1029800007D084F8340002252846BDE8F0810220F3
:10299000FBE7022784F8357060652046FFF73CFBB3
:1029A00094F85C103F208840B0602068016841F0D6
:1029B00016010160206C20B12068016841F0080117
:1029C00001602068016841F001010160DCE700005E
:1029D00070B5044600F0F0F80546601C02D00448CB
:1029E0000078044400F0E8F8401BA042FAD370BD20
:1029F000300000202DE9F84F00224FF00108032598
:102A00004FF00F0E0B6808FA02F42340A3426ED178
:102A10004E68012E05D0022E03D0112E01D0122EA9
:102A200012D186684FEA420C05FA0CF7BE43CF6814
:102A300007FA0CF7374387604668A6430C79C4F35E
:102A40000014944034434460C668570005FA07FCFC
:102A50008C6826EA0C06BC403443C4604C68022CE7
:102A600001D0122C13D1D40800EB8404A346D4F86F
:102A7000209054074FEAD46A0EFA0AF629EA0609AA
:102A80000E6906FA0AF646EA0906CBF820600668DF
:102A90000C7926EA0C0604F00304BC4034430460BD
:102AA0004C68E40065D5364C266846F480462660BE
:102AB000246822F0030604F480440094314C34442A
:102AC000A446D4F808489607370F0EFA07F6B44321
:102AD0002D4EB04201D1002624E02C4EB04201D14F
:102AE00001261FE02A4EB04202D102261AE040E041
:102AF000284EB04201D1032614E0274EB04201D146
:102B000004260FE0254EB04201D105260AE0244EEE
:102B1000B04201D1062605E0224EB04201D107267F
:102B200000E00826BE402643CCF808681E4E3468F4
:102B30004F689C43FF0300D51C4334601A4C241D8E
:102B400026684F689E43BF0300D51E432660164E7D
:102B5000083634684F689C43FF0200D51C4334603C
:102B6000114E0C3634684F689C43BF0200D51C439D
:102B70003460521C102AFFF445AFBDE8F88F000006
:102B8000443802400030014000000240000402408E
:102B900000080240000C02400010024000140240F5
:102BA00000180240001C0240003C01400AB1816153
:102BB00070470904FBE70000014880687047000087
:102BC000300000200248816802781144816070471B
:102BD000300000200B4810B5016841F4007101601D
:102BE000016841F480610160016841F48071016015
:102BF000032000F06FF8002000F006F800F024F841
:102C0000002010BD003C024070B50D4D04464FF44D
:102C10007A712878B1FBF0F00A490968B1FBF0F04D
:102C200000F0BDFD48B9102C07D200222146501EED
:102C300000F030F800206C6070BD012070BD000015
:102C4000300000203C0000200A4808B5016841F42B
:102C500080410160006800F4804000900548001F3A
:102C6000016841F080510160006800F080500090E0
:102C700008BD000044380240002809DB00F01F02B4
:102C8000012191404009800000F1E020C0F80011CE
:102C900070470000F0B40E4B1B680C46C3F30223D0
:102CA000C3F10705042D00D90425191D072901D2F8
:102CB000002300E0DB1E012606FA05F1491E214033
:102CC00099409E40761E16403143F0BC01F09FBCF7
:102CD0000CED00E0064900F0070208684FF6FF031C
:102CE000184040EA0220034A104308607047000081
:102CF0000CED00E00000FA052DE9F0470E46050056
:102D000065D0DFF81481D8F80000F7B200F00F00AA
:102D1000B04207D288F80070D8F8000000F00F0029
:102D2000B04254D128683D4C810712D5400703D5E5
:102D3000206840F4E05020602878000703D5206820
:102D400040F4604020602068A96820F0F00008434B
:102D500020602878C0072DD03049686808390128DC
:102D600012D0022813D0032811D00968890700293E
:102D70002DDA216821F0030101432160FFF71CFFD8
:102D8000814641F2883A0EE009688903EFE7096855
:102D90008901ECE7FFF710FFA0EB0901514502D9CB
:102DA0000320BDE8F0872068696800F00C00B0EBF4
:102DB000810FEFD1D8F80010404601F00F01B14269
:102DC00007D90770006800F00F00B04201D0012061
:102DD000E7E72878400705D52068E96820F4E05047
:102DE000084320602878000706D52068296920F468
:102DF000604040EAC100206000F038F82168084ACD
:102E0000C1F30311515CC8400649086006480068D8
:102E1000FFF7FAFE0020C4E7003C024008380240F9
:102E2000004C00083C000020340000200448054904
:102E300000680968044AC1F38221515CC8407047A8
:102E40003C00002008380240104C000804480549A6
:102E500000680968044AC1F34231515CC8407047B8
:102E60003C00002008380240104C0008154810B5FE
:102E7000006810F00C02144813D04110042A0FD03F
:102E8000082A0ED10F4C241F2268236802F03F024B
:102E90005B0207D52068C0F38810A0FB010106E0A3
:102EA000084610BD2168C1F38811A1FB0001002371
:102EB000FDF730FA2168C1F30141491C4900B0FB1C
:102EC000F1F010BD083802400024F4002DE9F84F5D
:102ED00004006ED02078DFF83C93C007A9F1040508
:102EE0004AD009F104000168C1F38101012908D029
:102EF0000068C0F3810002280AD1D9F8000040021E
:102F000006D52868800337D560680028E1D033E013
:102F10006068B0F5803F10D0B0F5A02F286810D0C1
:102F200020F480302860286820F4802028606068C1
:102F3000A8B1FFF741FE06460DE0286840F4803056
:102F4000F4E740F480202860F7E700BFFFF734FE85
:102F5000801B642873D828688003F7D50CE0FFF73E
:102F60002BFE064605E000BFFFF726FE801B642807
:102F7000F0D828688003F7D42078DFF89C82800797
:102F80004FF0000A3ED5A348001D016811F00C0F58
:102F900008D00068C0F3810002280BD1D9F80000E6
:102FA000400207D42868800716D5E068012800D1C0
:102FB00012E02BE1E068B8B10120C8F80000FFF78B
:102FC000FBFD064605E000BFFFF7F6FD801B02286B
:102FD000C0D828688007F7D52868216920F0F80054
:102FE00040EAC10028600DE0C8F800A0FFF7E4FD4A
:102FF000064604E0FFF7E0FD801B02281FD8286882
:103000008007F7D42078000722D5824E8348616973
:10301000703671B101210160FFF7CEFD074604E073
:10302000FFF7CAFDC01B022809D830688007F7D512
:103030000EE0C0F800A0FFF7BFFD074605E082E004
:10304000FFF7BAFDC01B02287DD830688007F7D48F
:103050002078400768D5DFF8BCB100270BF13C0BA6
:10306000DBF80000C0000BD4DBF8001041F0805109
:10307000CBF80010DBF80000012700F08050009032
:10308000674E3068C00510D4306840F480703060FE
:10309000FFF792FD009005E0FFF78EFD0099401AC2
:1030A000022850D83068C005F6D55A4EA0686C3654
:1030B00001280FD00528306810D020F001003060C2
:1030C000306820F004003060A068B8B1FFF774FDEC
:1030D00000900FE0306840F00100F4E740F0040099
:1030E0003060F7E7FFF768FD0099411A41F2883038
:1030F000814266D830688007F4D50EE0FFF75CFDAA
:10310000009007E0FFF758FD0099411A41F288301E
:10311000814256D830688007F4D42FB1DBF8001014
:1031200021F08051CBF80010A069C8B33949091DBE
:103130000968C1F3810102294AD00228504607D00C
:10314000C8F8600000E03CE0FFF736FD04463BE0D5
:103150004746C8F86000FFF72FFD064605E000BFB0
:10316000FFF72AFD801B02282BD828688001F7D49E
:10317000D4E907010843A16A2A4A490802EB014140
:10318000626A41EA8211084394F82C1040EA016116
:10319000C9F8001001203866FFF70EFD044606E06E
:1031A00036E000BFFFF708FD001B022809D8286899
:1031B0008001F7D52CE000BFFFF7FEFC001B0228C2
:1031C00002D90320BDE8F88F28688001F4D41FE0FD
:1031D0000128F7D0D9F80000E26900F4800191429B
:1031E00014D1226A00F03F0191420FD147F6C0711D
:1031F000626A0140914209D1A26A00F440319142D1
:1032000004D1E16A00F07060884201D00120D9E762
:103210000020D7E70438024000004742800E4742B2
:10322000007000400000FFFF70B5040005D00025CD
:10323000A56294F8510010B106E0012070BD84F839
:103240005050204600F030F8022084F851002068E9
:10325000016821F040010160D4E901010843D4E98B
:1032600003121143084361690843218B01F4007183
:103270000843E1690843216A0843A16A08432168B9
:103280000860A069042101EA1040616A08432168CE
:1032900048602068C16921F40061C1616565012051
:1032A00084F85100002070BD10B586B0044614218A
:1032B0006846FDF786F913492068884220D11248F4
:1032C0000021026842F480520260006800F48050DD
:1032D00005900D481438026842F00202026000684E
:1032E00000F002000590382000900220CDE9010195
:1032F000032003900520049069460448FFF77AFBF9
:1033000006B010BD003001404438024000040240C5
:103310002DE9F84F044640680025984616460F46AA
:103320004FF0040BB0F5827F01D1A06888B194F80A
:103330005000012818D0012084F85000FFF73CFC11
:10334000814694F851004FF0000A01280ED0022562
:103350007DE084F851B013460A462046CDF800803F
:1033600000F02CF9BDE8F88F0220FBE7002F6DD0AC
:10337000002E6BD084F851B0C4F854A0A763A68780
:10338000E687C4F830A0A4F834A0A4F836A0C4F8A6
:1033900040A0C4F844A0A068B0F5004F04D1206854
:1033A000016821F48041016020680168490603D466
:1033B000016841F040010160E068D8B139E020685F
:1033C0008168C90709D0007BA16B0870A06B401C05
:1033D000A063E08F401EE0870CE0FFF7EDFBA0EB61
:1033E0000901414503D3B8F1FF3F03D036E0B8F1FE
:1033F000000F33D0E08F0028E1D11DE02068816804
:10340000C90709D0C068A16B0880A06B801CA063AD
:10341000E08F401EE0870CE0FFF7CEFBA0EB090138
:10342000414503D3B8F1FF3F03D017E0B8F1000FD7
:1034300014D0E08F0028E1D14A464146204600F0F2
:1034400045FD08B120206065606D00B101250120B7
:1034500084F8510084F850A0284683E70325F6E756
:103460002DE9F84F044690F8500000271D461646F7
:10347000894601280DD04FF0010B84F850B0FFF7BA
:103480009BFB804694F85100BA46012804D00227DD
:103490008EE00220BDE8F88FB9F1000F7DD0002E3C
:1034A0007BD0032084F85100C4F854A0C4F83090B5
:1034B000A686E686C4F838A0A4F83CA0A4F83EA0EE
:1034C000C4F844A0C4F840A0A068B0F5004F04D1EF
:1034D0002068016841F48041016020680168490664
:1034E00003D4016841F040010160E068B0F5006F6D
:1034F000606803D030B3012E24D040E008B1012E23
:103500001CD1206B21680088C86006E020688168B3
:10351000890709D5216B0988C160206B801C206355
:10352000E08E401EE08609E0FFF746FBA0EB0800B6
:10353000A84202D3681C01D031E07DB3E08E0028A0
:10354000E4D11FE0206B21680078087306E0206852
:103550008168890709D5216B09780173206B401CAC
:103560002063E08E401EE08609E0FFF725FBA0EB1C
:103570000800A84202D3681C01D010E075B1E08EAB
:103580000028E4D142462946204600F0CDFC08B18F
:1035900020206065A06820B107E008E0FFE703276E
:1035A00006E02068C16880680090606D00B1012766
:1035B00084F851B084F850A038466BE72DE9F84FF5
:1035C000044690F8500000270A9E1D4692468B46FE
:1035D0004FF0010901280ED0012084F85000FFF7B8
:1035E000EBFA804694F85100616801280CD0B1F5DF
:1035F000827F07D102E00220BDE8F88FA16809B9F7
:10360000042801D00227C2E0BBF1000F27D0BAF195
:10361000000F24D01DB394F85100042802D00520D7
:1036200084F8510000206065C4F838A0E587A587BC
:10363000C4F830B0E586A58620646064206801681F
:10364000490603D4016841F040010160E068B0F52B
:10365000006F606805D0E8B3012D46D07FE00127F8
:1036600095E008B1012D39D1206B21680088C86030
:10367000206B801C2063E08E401EE0862EE02068D8
:10368000816889070FD5E18E69B1B9F1010F0AD1BF
:10369000216B0988C160206B801C2063E08E401E76
:1036A000E0864FF0000920688168C9070CD0E18FDF
:1036B00051B1C068A16B0880A06B801CA063E08F33
:1036C000401EE0874FF00109FFF776FAA0EB0800F3
:1036D000B04200E009E001D3701C50D1E08E002818
:1036E000CDD1E08F0028CAD13FE0206B216800785F
:1036F0000873206B401C2063E08E401EE0862EE0A5
:103700002068816889070FD5E18E69B1B9F1010F91
:103710000AD1216B09780173206B401C2063E08E75
:10372000401EE0864FF0000920688168C9070CD070
:10373000E18F51B1C068A16B0870A06B401CA06301
:10374000E08F401EE0874FF00109FFF735FAA0EB4C
:103750000800B04202D3701C01D010E07EB1E08EB0
:103760000028CDD1E08F0028CAD1424631462046FC
:1037700000F0DAFB28B101272020606507E003276D
:1037800005E0A06818B92068C16880680090012031
:1037900084F85100002084F8500038462CE710B51A
:1037A000401EB0F1807F01D3012010BD4FF0E02416
:1037B00060610F21601700F02AFF0020A061072040
:1037C0002061002010BD10B504460068416994F8DE
:1037D0003920C1F3C011212A0BD151B1416921F027
:1037E00080014161206B08B1FEF726FF204600F002
:1037F0001FFD2068416994F83A20C1F38011222A04
:103800000BD151B1416921F040014161606B08B1B8
:10381000FEF712FF204600F0FDFC002010BD7047AF
:1038200070B5026804461068D168536910F00F0F34
:1038300053D003F0010501F490762E435FD0C20708
:1038400005D0CA0503D5E26B42F00102E2634207EC
:1038500005D5DA0703D0E26B42F00202E263820789
:1038600005D5DA0703D0E26B42F00402E2630207F7
:1038700007D501F020022A4303D0E26B42F0080290
:10388000E263E26B002A34D0800604D5880602D5B4
:10389000204600F0D6FC20684069E16BC0F3801040
:1038A00001F008010143204624D000F0B3FC206859
:1038B000416949061AD5416921F040014161606BB7
:1038C000A0B11B490165606BFEF7FDFE002810D01A
:1038D000606B016DBDE87040084783060FD58B060D
:1038E0000DD52046BDE8704000F0ABBC2046FFF788
:1038F00096FF70BDFFF793FF0020E06370BD0306E5
:1039000006D50B0604D52046BDE8704000F078BD12
:103910004006F3D54806F1D5D168204621F0400194
:10392000D160202184F8391000F0AEF970BD00009C
:103930003D41000808B501680A6849680091FFF731
:1039400042FF00F09FFABDE8084000F08FBB70B561
:10395000040004D094F83900002510B106E00120DD
:1039600070BD84F83850204600F022F8242084F8F6
:1039700039002068C16821F40051C160204600F080
:10398000ABFC2068016921F4904101612068416924
:1039900021F02A0141612068C16841F40051C160F1
:1039A000E563202084F8390084F83A00002070BDD7
:1039B0002DE9F04186B0064614216846FCF701FE69
:1039C00030493068884259D12F480024016841F0BD
:1039D00010010160006800F0100005902A481438BA
:1039E000016841F0010101600068694600F00100D2
:1039F00005904FF4C06000900220CDE9010403203F
:103A00000390072004902148FEF7F4FF214D204841
:103A10004FF000672860C5E901744FF48068C5E97C
:103A200003486C61AC61EC612C6228466C62FEF765
:103A30002DFF08B1FEF735FB7563AE63154D1448D5
:103A400060357830E5E802074020A5E8110111480B
:103A500045F814496030AC61EC612C626C62FEF791
:103A600015FF08B1FEF71DFB35630022012125205B
:103A7000AE63FFF70FF92520FFF7FEF806B0BDE8AB
:103A8000F081000000100140443802400000024074
:103A900040640240D8000020F8B5044690F83A008F
:103AA00020283CD1C1B3BAB394F83800012836D0ED
:103AB000012084F83800A162A2850025E563222058
:103AC00084F83A00636B1748D863636B1648186430
:103AD000636B1648D864606B134605650846666BD1
:103AE000216802463046091DFEF73AFF206801684A
:103AF0004168009184F83850C16841F48071C16018
:103B00002068416941F0010141612068416941F04B
:103B1000400141610020F8BDFFE70120FBE70220E2
:103B2000F9E7000097410008D34100084D41000823
:103B3000054910B5884205D100F0A4F9BDE8104050
:103B400000F094BA10BD00009800002070472DE9E5
:103B5000F843044690F839001F4616460D462028C3
:103B600050D1B5B1AEB194F8380001284AD0012047
:103B700084F838004FF00008C4F83C80212084F815
:103B80003900FFF719F8A6848146E68484F8388066
:103B900026E00120BDE8F883E08C401EE084A068A8
:103BA0004B46B0F5805F4FF000024FF08001204699
:103BB000009703D000F055FCE8B90DE000F051FC8F
:103BC000C8B928882168C0F308004860206908B196
:103BD0006D1C05E0AD1C03E0216815F8010B486081
:103BE000E08C0028D8D14B46002240212046009787
:103BF00000F037FC08B10320CCE7202084F839001E
:103C00000020C7E70220C5E770B5044690F83900E8
:103C1000202830D169B362B394F8380001282AD043
:103C2000012084F838002162A284E2840025E56343
:103C3000212084F83900236B1048D863236B104887
:103C40001864236B0F48D864206B134605652668FB
:103C5000206B321DFEF784FE21686FF04000086083
:103C600084F838502068416941F0800141610020AA
:103C700070BD012070BD022070BD0000DD41000854
:103C80000B4200084D4100080349884202D1034914
:103C900001200870704700009800002000000020FC
:103CA0007047FEE70D4808B5016841F480010160E6
:103CB0000068002200F48000009011463A20FEF7D0
:103CC000E9FF3A20FEF7D8FF002211464620FEF712
:103CD000E1FFBDE808404620FEF7CEBF3038024085
:103CE0002DE9F04F87B014216846FCF76AFC3D4887
:103CF0000024016841F010010160016801F0100129
:103D00000591016841F080010160016801F08001C6
:103D10000591016841F001010160016801F00101B4
:103D20000591016841F002010160016801F00201A2
:103D30000591016841F008010160016801F0080186
:103D40000591016841F0400101600068DFF898B01A
:103D500000F040004FF48049059001224946584642
:103D6000FEF724FF1C2001268DE85100DFF87CA01F
:103D700069465046FEF73EFE0225009669461C48FD
:103D8000CDE90145FEF736FE4FF47840CDE9000558
:103D900002AA03274FF00C0882E8900169465046BA
:103DA000FEF728FECDE90096CDE902656946584642
:103DB000FEF720FE4CF23370CDE9000502AA6946F9
:103DC00082E890010B48FEF715FEE802CDE90005F8
:103DD00002AA694682E890010748FEF70BFE07B089
:103DE000BDE8F08F3038024000040240001002406D
:103DF00000000240000C024000180240104810B5BC
:103E00000E4901604FF482714160002102228160FD
:103E1000C0E9031201224261520282611022C0E90C
:103E20000721416281620A21C162FFF7FDF9002882
:103E300003D0BDE81040FEF734B910BD003001409A
:103E4000400000200C4810B50A4901604FF4E131F0
:103E50004160002181600C22C160C0E904128161CF
:103E6000C161FFF774FD002803D0BDE81040FEF7E4
:103E700018B910BD0010014098000020FEE77047FF
:103E80007047000070B50E48406B00684068D0F184
:103E9000800414D00B4D2878012810D180210A48C5
:103EA000FCF76DFB0849224680390748FCF7F0FA19
:103EB0006C7000F0E5F8BDE87040FEF7C1B870BD69
:103EC000980000200000002018020020F8B50446E9
:103ED00040684FF48273984221D1A0684FF4806506
:103EE000B0F5004F01D0A8420AD12068066826F03C
:103EF000400606606068984211D1A068A8420ED0C2
:103F000000920B4600228021204600F063F8002832
:103F100004D0606D40F0200060650320F8BD009281
:103F20000B4600220121EFE738B504461248134B37
:103F30000068B0FBF3F04FF47A7358430090606868
:103F4000B0F5827F0DD10B460092002280212046E1
:103F500000F040F870B1606D40F020006065032013
:103F600038BD009830B1401E009020688068C04382
:103F70000006F6D5002038BD3C00002000366E015A
:103F80000A460146C8230148FFF7C2B94000002095
:103F900008B500208DF80000C823012269460348B7
:103FA000FFF7B6F99DF8000008BD000040000020B2
:103FB0000A460146C8230148FFF752BA40000020D4
:103FC00001B5C823012269460148FFF749FA08BD37
:103FD000400000202DE9F0411D4617460E460446DC
:103FE000DDF8188008E0681C06D0FEF7E5FDA0EBC0
:103FF0000800A8420BD255B12068806836EA00005C
:1040000030D00020B842EED10020BDE8F081206819
:10401000416821F0E00141606068B0F5827F0BD11A
:10402000A068B0F5004F02D0B0F5806F04D12068D1
:10403000016821F040010160A06AB0F5005F09D17C
:104040002068016821F4005101602068016841F492
:1040500000510160012084F85100002084F85000D4
:104060000320D2E70120CDE77047000080220249FB
:10407000024800F063BA0000980100209800002078
:10408000024803494278034800F092BA0000002039
:104090001802002098000020FEF794BD30B593B0C0
:1040A00030216846FCF78DFA14210CA8FCF789FA38
:1040B00019480025016841F080510160006800F056
:1040C000805011901548016841F4804101600068FA
:1040D000022400F48040119001200090000401901F
:1040E0008001CDE9064008AA0420642182E813007B
:1040F0000B906846FEF7EAFE0CA90F2081E831001C
:104100004FF4A0500F90E002109003210CA8FEF78E
:10411000F3FD13B030BD0000403802400070004095
:104120000548016841F47001016003494FF00060E7
:10413000803908607047000088ED00E010B5806BA2
:104140000021C185C184FFF76AFB10BD70B5846B87
:104150002068406994F83910C0F3C0100025212967
:1041600004D118B1E584204600F062F82068406967
:1041700094F83A10C0F38010222904D118B1E585D3
:10418000204600F047F8E06B40F01000E063204666
:10419000FFF745FB70BD10B50146806B09680968E3
:1041A000C90513D40021C1850168CA6822F4807250
:1041B000CA6001684A6922F001024A6101684A69DD
:1041C00022F040024A61202180F83A10FFF7B0FC4B
:1041D00010BD10B5806BFFF7B9FC10BD10B50146DE
:1041E000806B09680968C9050CD40021C184016885
:1041F0004A6922F080024A610068C16841F04001CA
:10420000C16010BDFFF740FD10BD10B5806BFFF71A
:1042100047FD10BD0168CA6822F49072CA60016847
:104220004A6922F001024A61202180F83A10704761
:104230000168CA6822F0C002CA60202180F83910E3
:10424000704710B590F83A10222901D0022010BD15
:104250008168B1F5805F11D00169002901681FD024
:10426000496801F07F03816A4A1C82620B70C18D2C
:10427000491E0904090CC18518D02BE00269816A26
:10428000002A0268526805D0D2B20A80816A491CAD
:104290008162ECE7C2F308020A80816A891CF7E7B1
:1042A0004A68816A4B1C83620A70E0E70168CA6849
:1042B00022F02002CA600168CA6822F48072CA60D3
:1042C00001684A6922F001024A61202180F83A100F
:1042D000FFF72EFC002010BD2DE9F04104460068D8
:1042E0000169E26821F44051114301612169A0682C
:1042F000E26908436169114308432168CA6849F2C9
:104300000C639A430243CA6020684169A26921F4A0
:10431000407111434161E069192764253226B0F5E7
:10432000004F354A354920684FF0000806D08842D2
:1043300001D0904236D1FEF789FD35E0884201D0A8
:10434000904202D1FEF782FD01E0FEF76FFD616849
:104350004A18A0FB070148EB0803FBF7DBFF014607
:10436000B0FBF5F00201B1FBF5F06FF01803584314
:1043700001EB800006EBC000B0FBF5F000F0F800A8
:1043800002EB4002B1FBF5F0584301EB800006EB75
:10439000C000B0FBF5F000F0070021681044886011
:1043A000BDE8F081FEF742FD61688B0F8A00A0FB3B
:1043B0000701FBF7AFFF0146B0FBF5F06FF0180205
:1043C000504301EB800006EB0010B0FBF5F000F06D
:1043D000F002B1FBF5F002EB0012B1FBF5F06FF06B
:1043E0001803584301EB800006EB0010B0FBF5F01A
:1043F00000F00F00D1E70000001401400010014060
:1044000090F83910212901D0022070478168B1F558
:10441000805F016A0BD04A1C026202680978516011
:10442000C18C491E0904090CC1840ED017E009880B
:104430000268C1F30801516001690029016A02D0D4
:10444000491C0162ECE7891CFBE70168CA6822F09D
:104450008002CA600068C16841F04001C16000206C
:1044600070472DE9F041984617460E460446069DD2
:104470001DE0681C1BD02DB1FEF79EFBA0EB0800D1
:10448000A84214D92068C16821F4D071C1602068A5
:10449000416921F001014161202084F8390084F84C
:1044A0003A00002084F838000320BDE8F08120683D
:1044B000006836EA000004D00020B842D9D00020BD
:1044C000F3E70120F9E70000064810B5006800682E
:1044D000C00602D50348FFF72DFABDE81040014899
:1044E000FFF79EB9980000200FB4812110B503ABEF
:1044F0000548029AFBF786FF82B203490348FFF79B
:1045000083FB10BC5DF814FB18020020980000200B
:104510000FB4812110B503AB0648029AFBF772FF76
:1045200082B24FF6FF7303490348FFF710FB10BC3C
:104530005DF814FB18020020980000202DE9F041DE
:104540000D460646012492B2FFF7A6FA164A034624
:10455000144F506829783954074417F8017CC91B57
:10456000124F39542978312906D0322906D03329FF
:1045700006D0342906D007E0012104E0022102E040
:10458000032100E004219170401C50600BB1002415
:1045900004E03068C16841F01001C1602046BDE808
:1045A000F08100009802002000000020800600201A
:1045B00070B5034608480124057855B14AB1002575
:1045C000057092B21846FFF71FFB00B10024204689
:1045D00070BD002070BD000000000020FEE703B4A5
:1045E00001984100009850EAC12018BF04204A0DEC
:1045F00018BF40F0010040F2FF72B2EB515F08BFFC
:1046000040F00200012808BF052002B070470907EA
:10461000090E002804DB00F1E02080F80014704748
:1046200000F00F0000F1E02080F8141D70473038D2
:104630000A2801D20120704700207047FEF7CAFA0D
:10464000FFF72CFDFFF74CFBFFF72CFBFFF7D6FB2A
:10465000FFF7F8FBFFF70AFD134C0025207801282F
:1046600008D0022812D003281BD00428F6D1FDF769
:1046700007FE14E0FDF77CFDC1B20CA0FFF734FF8C
:104680003220FEF7A5F9FDF775FE08E00AA0FFF756
:104690002BFF0020FDF712FD0FA0FFF725FF25706F
:1046A000DCE7FDF7EFFEFAE7020000202020494496
:1046B000206973202564000045726173696E67206C
:1046C000626C6F636B7320302832353670616765BA
:1046D00073292E2E2E000000426C6F636B20302059
:1046E0006973206572617365642E000070B51D46A4
:1046F0002DED028B8AB0012305E004788C4201D1B4
:104700005B1CDBB2401C9342F7D100226C4603E0F5
:10471000A354521CD2B2401C03788B4206D00D2BFE
:1047200004D00A2B02D00BB1112AF1D30023A354D9
:104730008DF81130184605AA0FE02E2E04D1491C21
:104740008DF811108DF825109DF81110665C165427
:10475000401C491CC0B28DF811109DF81110665C08
:104760000EB11129E9D313549DF825008DF81100DD
:10477000401C8DF825001046FBF75EFE00F0C8F9DE
:1047800041EC100B9FED0D8B0DE000BF53EC182B8F
:1047900051EC100B00F064F841EC100B9DF8110087
:1047A000401C8DF811009DF81100205C0028EDD10F
:1047B00085ED000B0AB0BDEC028B70BD000000005F
:1047C000000024403EB5012305E004788C4201D16D
:1047D0005B1CDBB2401C9342F7D100226C4603E025
:1047E000A354521CD2B2401C03788B4206D00D2B2E
:1047F00004D00A2B02D00BB10A2AF1D30020A05416
:104800002046FBF719FE3EBD10B500290AD00878F6
:10481000002807D005487844FCF7B0FF002801D0F5
:10482000002010BD0248784410BD00001E050000A5
:104830001605000010B500290AD00878002807D016
:1048400005487844FCF79AFF002801D0002010BDED
:104850000248784410BD000002060000FA0500007E
:104860002DE9C04130B4DFF8A0C23CEA111418BFF2
:104870003CEA131400F0EC8081EA03051CEA1114F1
:1048800044EAD57418BF1CEA131500F0C780A4EBE6
:1048900005044FF0004545EAC12145EAC32341EA3A
:1048A000505143EA525304F17F74994204F50034A5
:1048B0004FEAC0204FEAC22208BF904200F09C801D
:1048C0004FEA13650FF24016765D4FEA134506FB7B
:1048D00005F7C7F1807706FB07F74FEAD737A7FB45
:1048E00003687642C8F58038A7FB06CE38BFA8F12A
:1048F000010807FB08E64FF0000EA6FB028CE6FB62
:1049000003CEDCF1000CCEF1004E38BFAEF1010E4B
:10491000A6FB0C584FF000074FF00005E6FB0E8792
:10492000A1FB08C6A0FB07CE16EB0E0645F100055D
:10493000E1FB076515F1E04E7EBFA4F580345FEA28
:1049400046066D4116F1800745F100054FEA17272D
:104950004FEA066647EA0567A6F1DE46B6F1805FD4
:104960004FEA15251FD9384624F0010C05EBC47118
:10497000BCF1FE6F01EB0C1102D8F0BCBDE8008168
:1049800024425CBF01F5801E9EEAC47F02D4F0BCC5
:10499000BDE80081244238D4F0BCA1F1C041BDE89B
:1049A000004100F01AB94FEAD22242EA43524FEADC
:1049B000D323A7FB02864FEAD02040EA415007FBF1
:1049C00003661EEA0E0F4FEAD12105FB026658BFAF
:1049D000A6EB0056B6EB00564FEA520E4EEAC37EE7
:1049E00018EB0E0E56EB530EBDD518EB02085E41C8
:1049F0007F1C55F10005B6E74FF480154FF0000716
:104A00004FF000064FF00008ADE7F0BC4FF000009B
:104A100001F1C04101F00041BDE8008111EA0C1F25
:104A20000CEA131500D00CE013EA0C1F00F02580EF
:104A30004FF00000F0BC81EA030101F00041BDE845
:104A40000081F0BCBDE8004181EA030100F0C5B877
:104A5000F0BCBDE8004170B500F071F8097EFC3E85
:104A600000F007B881EA03014FF0000001F00041B7
:104A7000704781EA030100F0B0B8F0BCBDE8004126
:104A80004FF0000021497047FFFDFBF9F7F5F4F204
:104A9000F0EEEDEBE9E8E6E4E3E1E0DEDDDBDAD8D9
:104AA000D7D5D4D3D1D0CFCDCCCBCAC8C7C6C5C437
:104AB000C2C1C0BFBEBDBCBBBAB9B8B7B6B5B4B34E
:104AC000B2B1B0AFAEADACABAAA9A8A8A7A6A5A439
:104AD000A3A3A2A1A09F9F9E9D9C9C9B9A999998FD
:104AE0009797969595949393929191908F8F8E8EA0
:104AF0008D8C8C8B8B8A898988888787868585842D
:104B000084838382828181800000FF070000F87F18
:104B100010F0004248BF4042B0FA80F310FA03F1AF
:104B20000AD0C3F11D0303F580634FEA415002EB45
:104B3000035202EBD12170474FF0000070470EF195
:104B4000020E2EF0030E5EF8046B364205D4012AE5
:104B500043EB030515F5001F12D8012841EB010CAA
:104B60001CF5001F0CD80ED14FEAD17C15F5001FA3
:104B70000CEB4C0C0CF1020C08BF4CEBD37C04E0AA
:104B80004FF0080C01E04FEAD37C0CEB4C0526FA01
:104B900005F606F00706B6F1040C06D20EEB860CFD
:104BA000BDE870404CF0010C6047DFE80CF0090BE9
:104BB00002024FF000414FF00000A1F5002170BD4E
:104BC00019461046012851EB010418BFD4F5001412
:104BD00084BF002001F0004170BD0808A0F500115D
:104BE0004FEA310170474FF04070E1EE100A704714
:104BF000FCF789B9FCF7BEBA0006101600061016BD
:104C0000000000000000000001020304060708097C
:104C1000000000000102030400000000000000008A
:104C200030313233343536373839414243444546E2
:104C300040305800303132333435363738396162DC
:104C400063646566403078000400000800000000DE
:104C500000000002000100001030313233343536DC
:104C60003738396162636465667870003031323399
:104C700034353637383941424344454658500000B0
:104C800002400000000000A00000000005400000FD
:104C9000000000C8000000000C4000000000409C24
:104CA00000000000194000000020BCBE0000000011
:104CB00034400000BFC91B8E00000004B540000056
:104CC000504BCFD06607E2CF010000006C410000DE
:104CD0003E8251AADFEEA73401000000D942000055
:104CE000DCB5A0E23A301F97FFFFFFFFB44500009C
:104CF000FD25A0C8E9A3C14FFFFFFFFFFF3F000054
:104D00000000008000000000FF3F00000000008065
:104D100000000000604E000800000020400000007D
:104D2000C4010008A04E00084000002088100000C8
:104D3000E00100081001000043000000F8FFFFFF41
:104D4000004040404040404040404141414141409E
:104D50004040404040404040404040404040404053
:104D600040050202020202020202020202020202E2
:104D700002202020202020202020200202020202E7
:104D8000020290909090909010101010101010103F
:104D9000101010101010101010101010020202024B
:104DA000020288888888888808080808080808088F
:104DB000080808080808080808080808020202028B
:104DC00040000000000000000000000000000000A3
:104DD00000000000000000000000000000000000D3
:104DE00000000000000000000000000000000000C3
:104DF00000000000000000000000000000000000B3
:104E000000000000000000000000000000000000A2
:104E10000000000000000000000000000000000092
:104E20000000000000000000000000000000000082
:104E30000000000000000000000000000000000072
:104E4000000000001C00000043000000F8FFFFFF0E
:104E50000C0000000E0000000F0000002E000000FB
:104E60000100000000000000000000000000000041
:104E70000000000000000000000000000000000032
:104E80000000000000000000000000000000000022
:104E90000100000010000000000000000024F400E9
:040000050800018965
:00000001FF
